{
  "contractName": "ERC20Permit",
  "abi": [
    {
      "inputs": [
        {
          "internalType": "string",
          "name": "name",
          "type": "string"
        },
        {
          "internalType": "string",
          "name": "symbol",
          "type": "string"
        }
      ],
      "stateMutability": "nonpayable",
      "type": "constructor"
    },
    {
      "anonymous": false,
      "inputs": [
        {
          "indexed": true,
          "internalType": "address",
          "name": "owner",
          "type": "address"
        },
        {
          "indexed": true,
          "internalType": "address",
          "name": "spender",
          "type": "address"
        },
        {
          "indexed": false,
          "internalType": "uint256",
          "name": "value",
          "type": "uint256"
        }
      ],
      "name": "Approval",
      "type": "event"
    },
    {
      "anonymous": false,
      "inputs": [
        {
          "indexed": true,
          "internalType": "address",
          "name": "from",
          "type": "address"
        },
        {
          "indexed": true,
          "internalType": "address",
          "name": "to",
          "type": "address"
        },
        {
          "indexed": false,
          "internalType": "uint256",
          "name": "value",
          "type": "uint256"
        }
      ],
      "name": "Transfer",
      "type": "event"
    },
    {
      "inputs": [
        {
          "internalType": "address",
          "name": "owner",
          "type": "address"
        },
        {
          "internalType": "address",
          "name": "spender",
          "type": "address"
        }
      ],
      "name": "allowance",
      "outputs": [
        {
          "internalType": "uint256",
          "name": "",
          "type": "uint256"
        }
      ],
      "stateMutability": "view",
      "type": "function",
      "constant": true
    },
    {
      "inputs": [
        {
          "internalType": "address",
          "name": "spender",
          "type": "address"
        },
        {
          "internalType": "uint256",
          "name": "amount",
          "type": "uint256"
        }
      ],
      "name": "approve",
      "outputs": [
        {
          "internalType": "bool",
          "name": "",
          "type": "bool"
        }
      ],
      "stateMutability": "nonpayable",
      "type": "function"
    },
    {
      "inputs": [
        {
          "internalType": "address",
          "name": "account",
          "type": "address"
        }
      ],
      "name": "balanceOf",
      "outputs": [
        {
          "internalType": "uint256",
          "name": "",
          "type": "uint256"
        }
      ],
      "stateMutability": "view",
      "type": "function",
      "constant": true
    },
    {
      "inputs": [],
      "name": "decimals",
      "outputs": [
        {
          "internalType": "uint8",
          "name": "",
          "type": "uint8"
        }
      ],
      "stateMutability": "view",
      "type": "function",
      "constant": true
    },
    {
      "inputs": [
        {
          "internalType": "address",
          "name": "spender",
          "type": "address"
        },
        {
          "internalType": "uint256",
          "name": "subtractedValue",
          "type": "uint256"
        }
      ],
      "name": "decreaseAllowance",
      "outputs": [
        {
          "internalType": "bool",
          "name": "",
          "type": "bool"
        }
      ],
      "stateMutability": "nonpayable",
      "type": "function"
    },
    {
      "inputs": [
        {
          "internalType": "address",
          "name": "spender",
          "type": "address"
        },
        {
          "internalType": "uint256",
          "name": "addedValue",
          "type": "uint256"
        }
      ],
      "name": "increaseAllowance",
      "outputs": [
        {
          "internalType": "bool",
          "name": "",
          "type": "bool"
        }
      ],
      "stateMutability": "nonpayable",
      "type": "function"
    },
    {
      "inputs": [],
      "name": "name",
      "outputs": [
        {
          "internalType": "string",
          "name": "",
          "type": "string"
        }
      ],
      "stateMutability": "view",
      "type": "function",
      "constant": true
    },
    {
      "inputs": [],
      "name": "symbol",
      "outputs": [
        {
          "internalType": "string",
          "name": "",
          "type": "string"
        }
      ],
      "stateMutability": "view",
      "type": "function",
      "constant": true
    },
    {
      "inputs": [],
      "name": "totalSupply",
      "outputs": [
        {
          "internalType": "uint256",
          "name": "",
          "type": "uint256"
        }
      ],
      "stateMutability": "view",
      "type": "function",
      "constant": true
    },
    {
      "inputs": [
        {
          "internalType": "address",
          "name": "to",
          "type": "address"
        },
        {
          "internalType": "uint256",
          "name": "amount",
          "type": "uint256"
        }
      ],
      "name": "transfer",
      "outputs": [
        {
          "internalType": "bool",
          "name": "",
          "type": "bool"
        }
      ],
      "stateMutability": "nonpayable",
      "type": "function"
    },
    {
      "inputs": [
        {
          "internalType": "address",
          "name": "from",
          "type": "address"
        },
        {
          "internalType": "address",
          "name": "to",
          "type": "address"
        },
        {
          "internalType": "uint256",
          "name": "amount",
          "type": "uint256"
        }
      ],
      "name": "transferFrom",
      "outputs": [
        {
          "internalType": "bool",
          "name": "",
          "type": "bool"
        }
      ],
      "stateMutability": "nonpayable",
      "type": "function"
    },
    {
      "inputs": [
        {
          "internalType": "address",
          "name": "owner",
          "type": "address"
        },
        {
          "internalType": "address",
          "name": "spender",
          "type": "address"
        },
        {
          "internalType": "uint256",
          "name": "value",
          "type": "uint256"
        },
        {
          "internalType": "uint256",
          "name": "deadline",
          "type": "uint256"
        },
        {
          "internalType": "uint8",
          "name": "v",
          "type": "uint8"
        },
        {
          "internalType": "bytes32",
          "name": "r",
          "type": "bytes32"
        },
        {
          "internalType": "bytes32",
          "name": "s",
          "type": "bytes32"
        }
      ],
      "name": "permit",
      "outputs": [
        {
          "internalType": "bool",
          "name": "",
          "type": "bool"
        }
      ],
      "stateMutability": "nonpayable",
      "type": "function"
    },
    {
      "inputs": [
        {
          "internalType": "address",
          "name": "owner",
          "type": "address"
        }
      ],
      "name": "nonces",
      "outputs": [
        {
          "internalType": "uint256",
          "name": "",
          "type": "uint256"
        }
      ],
      "stateMutability": "view",
      "type": "function",
      "constant": true
    },
    {
      "inputs": [],
      "name": "DOMAIN_SEPARATOR",
      "outputs": [
        {
          "internalType": "bytes32",
          "name": "",
          "type": "bytes32"
        }
      ],
      "stateMutability": "view",
      "type": "function",
      "constant": true
    }
  ],
  "bytecode": "0x6101606040527f6e71edae12b1b97f4d1f60370fef10105fa2faae0126114a169c64845d6126c9610140908152503480156200003a57600080fd5b50604051620027d6380380620027d68339818101604052810190620000609190620002f4565b816040518060400160405280600181526020017f310000000000000000000000000000000000000000000000000000000000000081525083838160039080519060200190620000b1929190620001c6565b508060049080519060200190620000ca929190620001c6565b50505060008280519060200120905060008280519060200120905060007f8b73c3c69bb8fe3d512ecc4cf759cc79239f7b179b0ffacaa9a75d522b39400f90508260e081815250508161010081815250504660a08181525050620001368184846200018a60201b60201c565b608081815250503073ffffffffffffffffffffffffffffffffffffffff1660c08173ffffffffffffffffffffffffffffffffffffffff1660601b8152505080610120818152505050505050505050620005d5565b60008383834630604051602001620001a7959493929190620003ac565b6040516020818303038152906040528051906020012090509392505050565b828054620001d490620004e6565b90600052602060002090601f016020900481019282620001f8576000855562000244565b82601f106200021357805160ff191683800117855562000244565b8280016001018555821562000244579182015b828111156200024357825182559160200191906001019062000226565b5b50905062000253919062000257565b5090565b5b808211156200027257600081600090555060010162000258565b5090565b60006200028d620002878462000432565b62000409565b905082815260208101848484011115620002ac57620002ab620005b5565b5b620002b9848285620004b0565b509392505050565b600082601f830112620002d957620002d8620005b0565b5b8151620002eb84826020860162000276565b91505092915050565b600080604083850312156200030e576200030d620005bf565b5b600083015167ffffffffffffffff8111156200032f576200032e620005ba565b5b6200033d85828601620002c1565b925050602083015167ffffffffffffffff811115620003615762000360620005ba565b5b6200036f85828601620002c1565b9150509250929050565b620003848162000468565b82525050565b62000395816200047c565b82525050565b620003a681620004a6565b82525050565b600060a082019050620003c360008301886200038a565b620003d260208301876200038a565b620003e160408301866200038a565b620003f060608301856200039b565b620003ff608083018462000379565b9695505050505050565b60006200041562000428565b90506200042382826200051c565b919050565b6000604051905090565b600067ffffffffffffffff82111562000450576200044f62000581565b5b6200045b82620005c4565b9050602081019050919050565b6000620004758262000486565b9050919050565b6000819050919050565b600073ffffffffffffffffffffffffffffffffffffffff82169050919050565b6000819050919050565b60005b83811015620004d0578082015181840152602081019050620004b3565b83811115620004e0576000848401525b50505050565b60006002820490506001821680620004ff57607f821691505b6020821081141562000516576200051562000552565b5b50919050565b6200052782620005c4565b810181811067ffffffffffffffff8211171562000549576200054862000581565b5b80604052505050565b7f4e487b7100000000000000000000000000000000000000000000000000000000600052602260045260246000fd5b7f4e487b7100000000000000000000000000000000000000000000000000000000600052604160045260246000fd5b600080fd5b600080fd5b600080fd5b600080fd5b6000601f19601f8301169050919050565b60805160a05160c05160601c60e0516101005161012051610140516121a36200063360003960006107a801526000610ebe01526000610f0001526000610edf01526000610e1401526000610e6a01526000610e9301526121a36000f3fe608060405234801561001057600080fd5b50600436106100ea5760003560e01c806370a082311161008c578063a457c2d711610066578063a457c2d714610275578063a9059cbb146102a5578063d505accf146102d5578063dd62ed3e14610305576100ea565b806370a08231146101f75780637ecebe001461022757806395d89b4114610257576100ea565b806323b872dd116100c857806323b872dd1461015b578063313ce5671461018b5780633644e515146101a957806339509351146101c7576100ea565b806306fdde03146100ef578063095ea7b31461010d57806318160ddd1461013d575b600080fd5b6100f7610335565b604051610104919061194e565b60405180910390f35b61012760048036038101906101229190611500565b6103c7565b604051610134919061181f565b60405180910390f35b6101456103ea565b6040516101529190611b30565b60405180910390f35b6101756004803603810190610170919061140b565b6103f4565b604051610182919061181f565b60405180910390f35b610193610423565b6040516101a09190611b4b565b60405180910390f35b6101b161042c565b6040516101be919061183a565b60405180910390f35b6101e160048036038101906101dc9190611500565b61043b565b6040516101ee919061181f565b60405180910390f35b610211600480360381019061020c919061139e565b6104e5565b60405161021e9190611b30565b60405180910390f35b610241600480360381019061023c919061139e565b61052d565b60405161024e9190611b30565b60405180910390f35b61025f61057d565b60405161026c919061194e565b60405180910390f35b61028f600480360381019061028a9190611500565b61060f565b60405161029c919061181f565b60405180910390f35b6102bf60048036038101906102ba9190611500565b6106f9565b6040516102cc919061181f565b60405180910390f35b6102ef60048036038101906102ea919061145e565b61071c565b6040516102fc919061181f565b60405180910390f35b61031f600480360381019061031a91906113cb565b6108a9565b60405161032c9190611b30565b60405180910390f35b60606003805461034490611c75565b80601f016020809104026020016040519081016040528092919081815260200182805461037090611c75565b80156103bd5780601f10610392576101008083540402835291602001916103bd565b820191906000526020600020905b8154815290600101906020018083116103a057829003601f168201915b5050505050905090565b6000806103d2610930565b90506103df818585610938565b600191505092915050565b6000600254905090565b6000806103ff610930565b905061040c858285610b03565b610417858585610b8f565b60019150509392505050565b60006012905090565b6000610436610e10565b905090565b600080610446610930565b90506104da818585600160008673ffffffffffffffffffffffffffffffffffffffff1673ffffffffffffffffffffffffffffffffffffffff16815260200190815260200160002060008973ffffffffffffffffffffffffffffffffffffffff1673ffffffffffffffffffffffffffffffffffffffff168152602001908152602001600020546104d59190611b8d565b610938565b600191505092915050565b60008060008373ffffffffffffffffffffffffffffffffffffffff1673ffffffffffffffffffffffffffffffffffffffff168152602001908152602001600020549050919050565b6000610576600560008473ffffffffffffffffffffffffffffffffffffffff1673ffffffffffffffffffffffffffffffffffffffff168152602001908152602001600020610f2a565b9050919050565b60606004805461058c90611c75565b80601f01602080910402602001604051908101604052809291908181526020018280546105b890611c75565b80156106055780601f106105da57610100808354040283529160200191610605565b820191906000526020600020905b8154815290600101906020018083116105e857829003601f168201915b5050505050905090565b60008061061a610930565b90506000600160008373ffffffffffffffffffffffffffffffffffffffff1673ffffffffffffffffffffffffffffffffffffffff16815260200190815260200160002060008673ffffffffffffffffffffffffffffffffffffffff1673ffffffffffffffffffffffffffffffffffffffff168152602001908152602001600020549050838110156106e0576040517f08c379a00000000000000000000000000000000000000000000000000000000081526004016106d790611b10565b60405180910390fd5b6106ed8286868403610938565b60019250505092915050565b600080610704610930565b9050610711818585610b8f565b600191505092915050565b600084421115610761576040517f08c379a000000000000000000000000000000000000000000000000000000000815260040161075890611a10565b60405180910390fd5b600086116107a4576040517f08c379a000000000000000000000000000000000000000000000000000000000815260040161079b90611af0565b60405180910390fd5b60007f00000000000000000000000000000000000000000000000000000000000000008989896107d38d610f38565b8a6040516020016107e996959493929190611855565b604051602081830303815290604052805190602001209050600061080c82610f96565b9050600061081c82888888610fb0565b90508a73ffffffffffffffffffffffffffffffffffffffff168173ffffffffffffffffffffffffffffffffffffffff161461088c576040517f08c379a000000000000000000000000000000000000000000000000000000000815260040161088390611a90565b60405180910390fd5b6108978b8b8b610938565b60019350505050979650505050505050565b6000600160008473ffffffffffffffffffffffffffffffffffffffff1673ffffffffffffffffffffffffffffffffffffffff16815260200190815260200160002060008373ffffffffffffffffffffffffffffffffffffffff1673ffffffffffffffffffffffffffffffffffffffff16815260200190815260200160002054905092915050565b600033905090565b600073ffffffffffffffffffffffffffffffffffffffff168373ffffffffffffffffffffffffffffffffffffffff1614156109a8576040517f08c379a000000000000000000000000000000000000000000000000000000000815260040161099f90611ad0565b60405180910390fd5b600073ffffffffffffffffffffffffffffffffffffffff168273ffffffffffffffffffffffffffffffffffffffff161415610a18576040517f08c379a0000000000000000000000000000000000000000000000000000000008152600401610a0f906119d0565b60405180910390fd5b80600160008573ffffffffffffffffffffffffffffffffffffffff1673ffffffffffffffffffffffffffffffffffffffff16815260200190815260200160002060008473ffffffffffffffffffffffffffffffffffffffff1673ffffffffffffffffffffffffffffffffffffffff168152602001908152602001600020819055508173ffffffffffffffffffffffffffffffffffffffff168373ffffffffffffffffffffffffffffffffffffffff167f8c5be1e5ebec7d5bd14f71427d1e84f3dd0314c0f7b2291e5b200ac8c7c3b92583604051610af69190611b30565b60405180910390a3505050565b6000610b0f84846108a9565b90507fffffffffffffffffffffffffffffffffffffffffffffffffffffffffffffffff8114610b895781811015610b7b576040517f08c379a0000000000000000000000000000000000000000000000000000000008152600401610b72906119f0565b60405180910390fd5b610b888484848403610938565b5b50505050565b600073ffffffffffffffffffffffffffffffffffffffff168373ffffffffffffffffffffffffffffffffffffffff161415610bff576040517f08c379a0000000000000000000000000000000000000000000000000000000008152600401610bf690611ab0565b60405180910390fd5b600073ffffffffffffffffffffffffffffffffffffffff168273ffffffffffffffffffffffffffffffffffffffff161415610c6f576040517f08c379a0000000000000000000000000000000000000000000000000000000008152600401610c6690611990565b60405180910390fd5b610c7a838383610fdb565b60008060008573ffffffffffffffffffffffffffffffffffffffff1673ffffffffffffffffffffffffffffffffffffffff16815260200190815260200160002054905081811015610d00576040517f08c379a0000000000000000000000000000000000000000000000000000000008152600401610cf790611a30565b60405180910390fd5b8181036000808673ffffffffffffffffffffffffffffffffffffffff1673ffffffffffffffffffffffffffffffffffffffff16815260200190815260200160002081905550816000808573ffffffffffffffffffffffffffffffffffffffff1673ffffffffffffffffffffffffffffffffffffffff1681526020019081526020016000206000828254610d939190611b8d565b925050819055508273ffffffffffffffffffffffffffffffffffffffff168473ffffffffffffffffffffffffffffffffffffffff167fddf252ad1be2c89b69c2b068fc378daa952ba7f163c4a11628f55a4df523b3ef84604051610df79190611b30565b60405180910390a3610e0a848484610fe0565b50505050565b60007f000000000000000000000000000000000000000000000000000000000000000073ffffffffffffffffffffffffffffffffffffffff163073ffffffffffffffffffffffffffffffffffffffff16148015610e8c57507f000000000000000000000000000000000000000000000000000000000000000046145b15610eb9577f00000000000000000000000000000000000000000000000000000000000000009050610f27565b610f247f00000000000000000000000000000000000000000000000000000000000000007f00000000000000000000000000000000000000000000000000000000000000007f0000000000000000000000000000000000000000000000000000000000000000610fe5565b90505b90565b600081600001549050919050565b600080600560008473ffffffffffffffffffffffffffffffffffffffff1673ffffffffffffffffffffffffffffffffffffffff1681526020019081526020016000209050610f8581610f2a565b9150610f908161101f565b50919050565b6000610fa9610fa3610e10565b83611035565b9050919050565b6000806000610fc187878787611068565b91509150610fce81611175565b8192505050949350505050565b505050565b505050565b600083838346306040516020016110009594939291906118b6565b6040516020818303038152906040528051906020012090509392505050565b6001816000016000828254019250508190555050565b6000828260405160200161104a9291906117e8565b60405160208183030381529060405280519060200120905092915050565b6000807f7fffffffffffffffffffffffffffffff5d576e7357a4501ddfe92f46681b20a08360001c11156110a357600060039150915061116c565b601b8560ff16141580156110bb5750601c8560ff1614155b156110cd57600060049150915061116c565b6000600187878787604051600081526020016040526040516110f29493929190611909565b6020604051602081039080840390855afa158015611114573d6000803e3d6000fd5b505050602060405103519050600073ffffffffffffffffffffffffffffffffffffffff168173ffffffffffffffffffffffffffffffffffffffff1614156111635760006001925092505061116c565b80600092509250505b94509492505050565b6000600481111561118957611188611ce0565b5b81600481111561119c5761119b611ce0565b5b14156111a757611347565b600160048111156111bb576111ba611ce0565b5b8160048111156111ce576111cd611ce0565b5b141561120f576040517f08c379a000000000000000000000000000000000000000000000000000000000815260040161120690611970565b60405180910390fd5b6002600481111561122357611222611ce0565b5b81600481111561123657611235611ce0565b5b1415611277576040517f08c379a000000000000000000000000000000000000000000000000000000000815260040161126e906119b0565b60405180910390fd5b6003600481111561128b5761128a611ce0565b5b81600481111561129e5761129d611ce0565b5b14156112df576040517f08c379a00000000000000000000000000000000000000000000000000000000081526004016112d690611a50565b60405180910390fd5b6004808111156112f2576112f1611ce0565b5b81600481111561130557611304611ce0565b5b1415611346576040517f08c379a000000000000000000000000000000000000000000000000000000000815260040161133d90611a70565b60405180910390fd5b5b50565b60008135905061135981612111565b92915050565b60008135905061136e81612128565b92915050565b6000813590506113838161213f565b92915050565b60008135905061139881612156565b92915050565b6000602082840312156113b4576113b3611d3e565b5b60006113c28482850161134a565b91505092915050565b600080604083850312156113e2576113e1611d3e565b5b60006113f08582860161134a565b92505060206114018582860161134a565b9150509250929050565b60008060006060848603121561142457611423611d3e565b5b60006114328682870161134a565b93505060206114438682870161134a565b925050604061145486828701611374565b9150509250925092565b600080600080600080600060e0888a03121561147d5761147c611d3e565b5b600061148b8a828b0161134a565b975050602061149c8a828b0161134a565b96505060406114ad8a828b01611374565b95505060606114be8a828b01611374565b94505060806114cf8a828b01611389565b93505060a06114e08a828b0161135f565b92505060c06114f18a828b0161135f565b91505092959891949750929550565b6000806040838503121561151757611516611d3e565b5b60006115258582860161134a565b925050602061153685828601611374565b9150509250929050565b61154981611be3565b82525050565b61155881611bf5565b82525050565b61156781611c01565b82525050565b61157e61157982611c01565b611ca7565b82525050565b600061158f82611b66565b6115998185611b71565b93506115a9818560208601611c42565b6115b281611d43565b840191505092915050565b60006115ca601883611b71565b91506115d582611d54565b602082019050919050565b60006115ed602383611b71565b91506115f882611d7d565b604082019050919050565b6000611610601f83611b71565b915061161b82611dcc565b602082019050919050565b6000611633602283611b71565b915061163e82611df5565b604082019050919050565b6000611656600283611b82565b915061166182611e44565b600282019050919050565b6000611679601d83611b71565b915061168482611e6d565b602082019050919050565b600061169c601d83611b71565b91506116a782611e96565b602082019050919050565b60006116bf602683611b71565b91506116ca82611ebf565b604082019050919050565b60006116e2602283611b71565b91506116ed82611f0e565b604082019050919050565b6000611705602283611b71565b915061171082611f5d565b604082019050919050565b6000611728601e83611b71565b915061173382611fac565b602082019050919050565b600061174b602583611b71565b915061175682611fd5565b604082019050919050565b600061176e602483611b71565b915061177982612024565b604082019050919050565b6000611791602c83611b71565b915061179c82612073565b604082019050919050565b60006117b4602583611b71565b91506117bf826120c2565b604082019050919050565b6117d381611c2b565b82525050565b6117e281611c35565b82525050565b60006117f382611649565b91506117ff828561156d565b60208201915061180f828461156d565b6020820191508190509392505050565b6000602082019050611834600083018461154f565b92915050565b600060208201905061184f600083018461155e565b92915050565b600060c08201905061186a600083018961155e565b6118776020830188611540565b6118846040830187611540565b61189160608301866117ca565b61189e60808301856117ca565b6118ab60a08301846117ca565b979650505050505050565b600060a0820190506118cb600083018861155e565b6118d8602083018761155e565b6118e5604083018661155e565b6118f260608301856117ca565b6118ff6080830184611540565b9695505050505050565b600060808201905061191e600083018761155e565b61192b60208301866117d9565b611938604083018561155e565b611945606083018461155e565b95945050505050565b600060208201905081810360008301526119688184611584565b905092915050565b60006020820190508181036000830152611989816115bd565b9050919050565b600060208201905081810360008301526119a9816115e0565b9050919050565b600060208201905081810360008301526119c981611603565b9050919050565b600060208201905081810360008301526119e981611626565b9050919050565b60006020820190508181036000830152611a098161166c565b9050919050565b60006020820190508181036000830152611a298161168f565b9050919050565b60006020820190508181036000830152611a49816116b2565b9050919050565b60006020820190508181036000830152611a69816116d5565b9050919050565b60006020820190508181036000830152611a89816116f8565b9050919050565b60006020820190508181036000830152611aa98161171b565b9050919050565b60006020820190508181036000830152611ac98161173e565b9050919050565b60006020820190508181036000830152611ae981611761565b9050919050565b60006020820190508181036000830152611b0981611784565b9050919050565b60006020820190508181036000830152611b29816117a7565b9050919050565b6000602082019050611b4560008301846117ca565b92915050565b6000602082019050611b6060008301846117d9565b92915050565b600081519050919050565b600082825260208201905092915050565b600081905092915050565b6000611b9882611c2b565b9150611ba383611c2b565b9250827fffffffffffffffffffffffffffffffffffffffffffffffffffffffffffffffff03821115611bd857611bd7611cb1565b5b828201905092915050565b6000611bee82611c0b565b9050919050565b60008115159050919050565b6000819050919050565b600073ffffffffffffffffffffffffffffffffffffffff82169050919050565b6000819050919050565b600060ff82169050919050565b60005b83811015611c60578082015181840152602081019050611c45565b83811115611c6f576000848401525b50505050565b60006002820490506001821680611c8d57607f821691505b60208210811415611ca157611ca0611d0f565b5b50919050565b6000819050919050565b7f4e487b7100000000000000000000000000000000000000000000000000000000600052601160045260246000fd5b7f4e487b7100000000000000000000000000000000000000000000000000000000600052602160045260246000fd5b7f4e487b7100000000000000000000000000000000000000000000000000000000600052602260045260246000fd5b600080fd5b6000601f19601f8301169050919050565b7f45434453413a20696e76616c6964207369676e61747572650000000000000000600082015250565b7f45524332303a207472616e7366657220746f20746865207a65726f206164647260008201527f6573730000000000000000000000000000000000000000000000000000000000602082015250565b7f45434453413a20696e76616c6964207369676e6174757265206c656e67746800600082015250565b7f45524332303a20617070726f766520746f20746865207a65726f20616464726560008201527f7373000000000000000000000000000000000000000000000000000000000000602082015250565b7f1901000000000000000000000000000000000000000000000000000000000000600082015250565b7f45524332303a20696e73756666696369656e7420616c6c6f77616e6365000000600082015250565b7f45524332305065726d69743a206578706972656420646561646c696e65000000600082015250565b7f45524332303a207472616e7366657220616d6f756e742065786365656473206260008201527f616c616e63650000000000000000000000000000000000000000000000000000602082015250565b7f45434453413a20696e76616c6964207369676e6174757265202773272076616c60008201527f7565000000000000000000000000000000000000000000000000000000000000602082015250565b7f45434453413a20696e76616c6964207369676e6174757265202776272076616c60008201527f7565000000000000000000000000000000000000000000000000000000000000602082015250565b7f45524332305065726d69743a20696e76616c6964207369676e61747572650000600082015250565b7f45524332303a207472616e736665722066726f6d20746865207a65726f20616460008201527f6472657373000000000000000000000000000000000000000000000000000000602082015250565b7f45524332303a20617070726f76652066726f6d20746865207a65726f2061646460008201527f7265737300000000000000000000000000000000000000000000000000000000602082015250565b7f45524332305065726d69743a2076616c7565206d75737420626520677265617460008201527f6572207468616e207a65726f0000000000000000000000000000000000000000602082015250565b7f45524332303a2064656372656173656420616c6c6f77616e63652062656c6f7760008201527f207a65726f000000000000000000000000000000000000000000000000000000602082015250565b61211a81611be3565b811461212557600080fd5b50565b61213181611c01565b811461213c57600080fd5b50565b61214881611c2b565b811461215357600080fd5b50565b61215f81611c35565b811461216a57600080fd5b5056fea264697066735822122011f2ff3ff64db668e01f00e17744b6e4a07160a03f6b61a89d5a4563f9c75a3364736f6c63430008070033",
  "immutableReferences": {
    "1402": [
      {
        "length": 32,
        "start": 3731
      }
    ],
    "1404": [
      {
        "length": 32,
        "start": 3690
      }
    ],
    "1406": [
      {
        "length": 32,
        "start": 3604
      }
    ],
    "1408": [
      {
        "length": 32,
        "start": 3807
      }
    ],
    "1410": [
      {
        "length": 32,
        "start": 3840
      }
    ],
    "1412": [
      {
        "length": 32,
        "start": 3774
      }
    ],
    "1577": [
      {
        "length": 32,
        "start": 1960
      }
    ]
  },
  "source": "// SPDX-License-Identifier: MIT\npragma solidity ^0.8.0;\n\nimport \"@openzeppelin/contracts/token/ERC20/ERC20.sol\";\nimport \"@openzeppelin/contracts/utils/cryptography/draft-EIP712.sol\";\nimport \"@openzeppelin/contracts/utils/cryptography/ECDSA.sol\";\nimport \"@openzeppelin/contracts/utils/Counters.sol\";\nimport \"./IERC20Permit.sol\";\n\ncontract ERC20Permit is ERC20, IERC20Permit, EIP712 {\n    using Counters for Counters.Counter;\n\n    mapping(address => Counters.Counter) private _nonces;\n\n    bytes32 private immutable _PERMIT_TYPEHASH =\n        keccak256(\"Permit(address owner,address spender,uint256 value,uint256 nonce,uint256 deadline)\");\n\n    constructor(string memory name, string memory symbol) ERC20(name, symbol) EIP712(name, \"1\") {}\n\n    function permit(\n        address owner,\n        address spender,\n        uint256 value,\n        uint256 deadline,\n        uint8 v,\n        bytes32 r,\n        bytes32 s\n    ) public virtual override returns(bool){\n        require(block.timestamp <= deadline, \"ERC20Permit: expired deadline\");\n        require(value > 0, \"ERC20Permit: value must be greater than zero\");\n\n        bytes32 structHash = keccak256(abi.encode(_PERMIT_TYPEHASH, owner, spender, value, _useNonce(owner), deadline));\n\n        bytes32 hash = _hashTypedDataV4(structHash);\n\n        address signer = ECDSA.recover(hash, v, r, s);\n        require(signer == owner, \"ERC20Permit: invalid signature\");\n\n        _approve(owner, spender, value);\n\n        return true;\n    }\n\n    function nonces(address owner) public view virtual override returns (uint256) {\n        return _nonces[owner].current();\n    }\n\n    function DOMAIN_SEPARATOR() external view override returns (bytes32) {\n        return _domainSeparatorV4();\n    }\n\n    function _useNonce(address owner) internal virtual returns (uint256 current) {\n        Counters.Counter storage nonce = _nonces[owner];\n        current = nonce.current();\n        nonce.increment();\n    }\n}",
  "sourcePath": "/Users/paulochade/Desktop/PtE/permit/contracts/ERC20Permit.sol",
  "compiler": {
    "name": "solc",
    "version": "0.8.7+commit.e28d00a7.Emscripten.clang"
  },
  "schemaVersion": "3.4.3",
  "updatedAt": "2022-03-08T19:00:47.976Z",
  "networkType": "ethereum",
  "devdoc": {
    "kind": "dev",
    "methods": {
      "DOMAIN_SEPARATOR()": {
        "details": "Returns the domain separator used in the encoding of the signature for {permit}, as defined by {EIP712}."
      },
      "allowance(address,address)": {
        "details": "See {IERC20-allowance}."
      },
      "approve(address,uint256)": {
        "details": "See {IERC20-approve}. NOTE: If `amount` is the maximum `uint256`, the allowance is not updated on `transferFrom`. This is semantically equivalent to an infinite approval. Requirements: - `spender` cannot be the zero address."
      },
      "balanceOf(address)": {
        "details": "See {IERC20-balanceOf}."
      },
      "decimals()": {
        "details": "Returns the number of decimals used to get its user representation. For example, if `decimals` equals `2`, a balance of `505` tokens should be displayed to a user as `5.05` (`505 / 10 ** 2`). Tokens usually opt for a value of 18, imitating the relationship between Ether and Wei. This is the value {ERC20} uses, unless this function is overridden; NOTE: This information is only used for _display_ purposes: it in no way affects any of the arithmetic of the contract, including {IERC20-balanceOf} and {IERC20-transfer}."
      },
      "decreaseAllowance(address,uint256)": {
        "details": "Atomically decreases the allowance granted to `spender` by the caller. This is an alternative to {approve} that can be used as a mitigation for problems described in {IERC20-approve}. Emits an {Approval} event indicating the updated allowance. Requirements: - `spender` cannot be the zero address. - `spender` must have allowance for the caller of at least `subtractedValue`."
      },
      "increaseAllowance(address,uint256)": {
        "details": "Atomically increases the allowance granted to `spender` by the caller. This is an alternative to {approve} that can be used as a mitigation for problems described in {IERC20-approve}. Emits an {Approval} event indicating the updated allowance. Requirements: - `spender` cannot be the zero address."
      },
      "name()": {
        "details": "Returns the name of the token."
      },
      "nonces(address)": {
        "details": "Returns the current nonce for `owner`. This value must be included whenever a signature is generated for {permit}. Every successful call to {permit} increases ``owner``'s nonce by one. This prevents a signature from being used multiple times."
      },
      "permit(address,address,uint256,uint256,uint8,bytes32,bytes32)": {
        "details": "Sets `value` as the allowance of `spender` over ``owner``'s tokens, given ``owner``'s signed approval. IMPORTANT: The same issues {IERC20-approve} has related to transaction ordering also apply here. Emits an {Approval} event. Requirements: - `spender` cannot be the zero address. - `deadline` must be a timestamp in the future. - `v`, `r` and `s` must be a valid `secp256k1` signature from `owner` over the EIP712-formatted function arguments. - the signature must use ``owner``'s current nonce (see {nonces}). For more information on the signature format, see the https://eips.ethereum.org/EIPS/eip-2612#specification[relevant EIP section]."
      },
      "symbol()": {
        "details": "Returns the symbol of the token, usually a shorter version of the name."
      },
      "totalSupply()": {
        "details": "See {IERC20-totalSupply}."
      },
      "transfer(address,uint256)": {
        "details": "See {IERC20-transfer}. Requirements: - `to` cannot be the zero address. - the caller must have a balance of at least `amount`."
      },
      "transferFrom(address,address,uint256)": {
        "details": "See {IERC20-transferFrom}. Emits an {Approval} event indicating the updated allowance. This is not required by the EIP. See the note at the beginning of {ERC20}. NOTE: Does not update the allowance if the current allowance is the maximum `uint256`. Requirements: - `from` and `to` cannot be the zero address. - `from` must have a balance of at least `amount`. - the caller must have allowance for ``from``'s tokens of at least `amount`."
      }
    },
    "version": 1
  },
  "userdoc": {
    "kind": "user",
    "methods": {},
    "version": 1
  }
}