{
  "contractName": "PermitTest",
  "abi": [
    {
      "inputs": [
        {
          "internalType": "string",
          "name": "name",
          "type": "string"
        },
        {
          "internalType": "string",
          "name": "symbol",
          "type": "string"
        }
      ],
      "stateMutability": "nonpayable",
      "type": "constructor"
    },
    {
      "anonymous": false,
      "inputs": [
        {
          "indexed": true,
          "internalType": "address",
          "name": "owner",
          "type": "address"
        },
        {
          "indexed": true,
          "internalType": "address",
          "name": "spender",
          "type": "address"
        },
        {
          "indexed": false,
          "internalType": "uint256",
          "name": "value",
          "type": "uint256"
        }
      ],
      "name": "Approval",
      "type": "event"
    },
    {
      "anonymous": false,
      "inputs": [
        {
          "indexed": true,
          "internalType": "address",
          "name": "from",
          "type": "address"
        },
        {
          "indexed": true,
          "internalType": "address",
          "name": "to",
          "type": "address"
        },
        {
          "indexed": false,
          "internalType": "uint256",
          "name": "value",
          "type": "uint256"
        }
      ],
      "name": "Transfer",
      "type": "event"
    },
    {
      "inputs": [],
      "name": "DOMAIN_SEPARATOR",
      "outputs": [
        {
          "internalType": "bytes32",
          "name": "",
          "type": "bytes32"
        }
      ],
      "stateMutability": "view",
      "type": "function"
    },
    {
      "inputs": [
        {
          "internalType": "address",
          "name": "owner",
          "type": "address"
        },
        {
          "internalType": "address",
          "name": "spender",
          "type": "address"
        }
      ],
      "name": "allowance",
      "outputs": [
        {
          "internalType": "uint256",
          "name": "",
          "type": "uint256"
        }
      ],
      "stateMutability": "view",
      "type": "function"
    },
    {
      "inputs": [
        {
          "internalType": "address",
          "name": "spender",
          "type": "address"
        },
        {
          "internalType": "uint256",
          "name": "amount",
          "type": "uint256"
        }
      ],
      "name": "approve",
      "outputs": [
        {
          "internalType": "bool",
          "name": "",
          "type": "bool"
        }
      ],
      "stateMutability": "nonpayable",
      "type": "function"
    },
    {
      "inputs": [
        {
          "internalType": "address",
          "name": "account",
          "type": "address"
        }
      ],
      "name": "balanceOf",
      "outputs": [
        {
          "internalType": "uint256",
          "name": "",
          "type": "uint256"
        }
      ],
      "stateMutability": "view",
      "type": "function"
    },
    {
      "inputs": [],
      "name": "decimals",
      "outputs": [
        {
          "internalType": "uint8",
          "name": "",
          "type": "uint8"
        }
      ],
      "stateMutability": "view",
      "type": "function"
    },
    {
      "inputs": [
        {
          "internalType": "address",
          "name": "spender",
          "type": "address"
        },
        {
          "internalType": "uint256",
          "name": "subtractedValue",
          "type": "uint256"
        }
      ],
      "name": "decreaseAllowance",
      "outputs": [
        {
          "internalType": "bool",
          "name": "",
          "type": "bool"
        }
      ],
      "stateMutability": "nonpayable",
      "type": "function"
    },
    {
      "inputs": [
        {
          "internalType": "address",
          "name": "spender",
          "type": "address"
        },
        {
          "internalType": "uint256",
          "name": "addedValue",
          "type": "uint256"
        }
      ],
      "name": "increaseAllowance",
      "outputs": [
        {
          "internalType": "bool",
          "name": "",
          "type": "bool"
        }
      ],
      "stateMutability": "nonpayable",
      "type": "function"
    },
    {
      "inputs": [],
      "name": "name",
      "outputs": [
        {
          "internalType": "string",
          "name": "",
          "type": "string"
        }
      ],
      "stateMutability": "view",
      "type": "function"
    },
    {
      "inputs": [
        {
          "internalType": "address",
          "name": "owner",
          "type": "address"
        }
      ],
      "name": "nonces",
      "outputs": [
        {
          "internalType": "uint256",
          "name": "",
          "type": "uint256"
        }
      ],
      "stateMutability": "view",
      "type": "function"
    },
    {
      "inputs": [
        {
          "internalType": "address",
          "name": "owner",
          "type": "address"
        },
        {
          "internalType": "address",
          "name": "spender",
          "type": "address"
        },
        {
          "internalType": "uint256",
          "name": "value",
          "type": "uint256"
        },
        {
          "internalType": "uint256",
          "name": "deadline",
          "type": "uint256"
        },
        {
          "internalType": "uint8",
          "name": "v",
          "type": "uint8"
        },
        {
          "internalType": "bytes32",
          "name": "r",
          "type": "bytes32"
        },
        {
          "internalType": "bytes32",
          "name": "s",
          "type": "bytes32"
        }
      ],
      "name": "permit",
      "outputs": [
        {
          "internalType": "bool",
          "name": "",
          "type": "bool"
        }
      ],
      "stateMutability": "nonpayable",
      "type": "function"
    },
    {
      "inputs": [],
      "name": "symbol",
      "outputs": [
        {
          "internalType": "string",
          "name": "",
          "type": "string"
        }
      ],
      "stateMutability": "view",
      "type": "function"
    },
    {
      "inputs": [],
      "name": "totalSupply",
      "outputs": [
        {
          "internalType": "uint256",
          "name": "",
          "type": "uint256"
        }
      ],
      "stateMutability": "view",
      "type": "function"
    },
    {
      "inputs": [
        {
          "internalType": "address",
          "name": "to",
          "type": "address"
        },
        {
          "internalType": "uint256",
          "name": "amount",
          "type": "uint256"
        }
      ],
      "name": "transfer",
      "outputs": [
        {
          "internalType": "bool",
          "name": "",
          "type": "bool"
        }
      ],
      "stateMutability": "nonpayable",
      "type": "function"
    },
    {
      "inputs": [
        {
          "internalType": "address",
          "name": "from",
          "type": "address"
        },
        {
          "internalType": "address",
          "name": "to",
          "type": "address"
        },
        {
          "internalType": "uint256",
          "name": "amount",
          "type": "uint256"
        }
      ],
      "name": "transferFrom",
      "outputs": [
        {
          "internalType": "bool",
          "name": "",
          "type": "bool"
        }
      ],
      "stateMutability": "nonpayable",
      "type": "function"
    },
    {
      "inputs": [
        {
          "internalType": "address",
          "name": "owner",
          "type": "address"
        },
        {
          "internalType": "address",
          "name": "spender",
          "type": "address"
        },
        {
          "internalType": "uint256",
          "name": "value",
          "type": "uint256"
        },
        {
          "internalType": "uint256",
          "name": "deadline",
          "type": "uint256"
        },
        {
          "internalType": "uint8",
          "name": "v",
          "type": "uint8"
        },
        {
          "internalType": "bytes32",
          "name": "r",
          "type": "bytes32"
        },
        {
          "internalType": "bytes32",
          "name": "s",
          "type": "bytes32"
        }
      ],
      "name": "approveTransferFrom",
      "outputs": [],
      "stateMutability": "nonpayable",
      "type": "function"
    }
  ],
  "bytecode": "0x6101606040527f6e71edae12b1b97f4d1f60370fef10105fa2faae0126114a169c64845d6126c9610140908152503480156200003a57600080fd5b50604051620028d0380380620028d08339818101604052810190620000609190620002f8565b8181816040518060400160405280600181526020017f310000000000000000000000000000000000000000000000000000000000000081525083838160039080519060200190620000b3929190620001ca565b508060049080519060200190620000cc929190620001ca565b50505060008280519060200120905060008280519060200120905060007f8b73c3c69bb8fe3d512ecc4cf759cc79239f7b179b0ffacaa9a75d522b39400f90508260e081815250508161010081815250504660a08181525050620001388184846200018e60201b60201c565b608081815250503073ffffffffffffffffffffffffffffffffffffffff1660c08173ffffffffffffffffffffffffffffffffffffffff1660601b81525050806101208181525050505050505050505050620005d9565b60008383834630604051602001620001ab959493929190620003b0565b6040516020818303038152906040528051906020012090509392505050565b828054620001d890620004ea565b90600052602060002090601f016020900481019282620001fc576000855562000248565b82601f106200021757805160ff191683800117855562000248565b8280016001018555821562000248579182015b82811115620002475782518255916020019190600101906200022a565b5b5090506200025791906200025b565b5090565b5b80821115620002765760008160009055506001016200025c565b5090565b6000620002916200028b8462000436565b6200040d565b905082815260208101848484011115620002b057620002af620005b9565b5b620002bd848285620004b4565b509392505050565b600082601f830112620002dd57620002dc620005b4565b5b8151620002ef8482602086016200027a565b91505092915050565b60008060408385031215620003125762000311620005c3565b5b600083015167ffffffffffffffff811115620003335762000332620005be565b5b6200034185828601620002c5565b925050602083015167ffffffffffffffff811115620003655762000364620005be565b5b6200037385828601620002c5565b9150509250929050565b62000388816200046c565b82525050565b620003998162000480565b82525050565b620003aa81620004aa565b82525050565b600060a082019050620003c760008301886200038e565b620003d660208301876200038e565b620003e560408301866200038e565b620003f460608301856200039f565b6200040360808301846200037d565b9695505050505050565b6000620004196200042c565b905062000427828262000520565b919050565b6000604051905090565b600067ffffffffffffffff82111562000454576200045362000585565b5b6200045f82620005c8565b9050602081019050919050565b600062000479826200048a565b9050919050565b6000819050919050565b600073ffffffffffffffffffffffffffffffffffffffff82169050919050565b6000819050919050565b60005b83811015620004d4578082015181840152602081019050620004b7565b83811115620004e4576000848401525b50505050565b600060028204905060018216806200050357607f821691505b602082108114156200051a576200051962000556565b5b50919050565b6200052b82620005c8565b810181811067ffffffffffffffff821117156200054d576200054c62000585565b5b80604052505050565b7f4e487b7100000000000000000000000000000000000000000000000000000000600052602260045260246000fd5b7f4e487b7100000000000000000000000000000000000000000000000000000000600052604160045260246000fd5b600080fd5b600080fd5b600080fd5b600080fd5b6000601f19601f8301169050919050565b60805160a05160c05160601c60e05161010051610120516101405161229962000637600039600061083201526000610f4801526000610f8a01526000610f6901526000610e9e01526000610ef401526000610f1d01526122996000f3fe608060405234801561001057600080fd5b50600436106100f55760003560e01c80635138408411610097578063a457c2d711610066578063a457c2d71461029c578063a9059cbb146102cc578063d505accf146102fc578063dd62ed3e1461032c576100f5565b8063513840841461020257806370a082311461021e5780637ecebe001461024e57806395d89b411461027e576100f5565b806323b872dd116100d357806323b872dd14610166578063313ce567146101965780633644e515146101b457806339509351146101d2576100f5565b806306fdde03146100fa578063095ea7b31461011857806318160ddd14610148575b600080fd5b61010261035c565b60405161010f91906119fb565b60405180910390f35b610132600480360381019061012d919061158a565b6103ee565b60405161013f91906118cc565b60405180910390f35b610150610411565b60405161015d9190611bfd565b60405180910390f35b610180600480360381019061017b9190611495565b61041b565b60405161018d91906118cc565b60405180910390f35b61019e61044a565b6040516101ab9190611c18565b60405180910390f35b6101bc610453565b6040516101c991906118e7565b60405180910390f35b6101ec60048036038101906101e7919061158a565b610462565b6040516101f991906118cc565b60405180910390f35b61021c600480360381019061021791906114e8565b61050c565b005b61023860048036038101906102339190611428565b61056f565b6040516102459190611bfd565b60405180910390f35b61026860048036038101906102639190611428565b6105b7565b6040516102759190611bfd565b60405180910390f35b610286610607565b60405161029391906119fb565b60405180910390f35b6102b660048036038101906102b1919061158a565b610699565b6040516102c391906118cc565b60405180910390f35b6102e660048036038101906102e1919061158a565b610783565b6040516102f391906118cc565b60405180910390f35b610316600480360381019061031191906114e8565b6107a6565b60405161032391906118cc565b60405180910390f35b61034660048036038101906103419190611455565b610933565b6040516103539190611bfd565b60405180910390f35b60606003805461036b90611d42565b80601f016020809104026020016040519081016040528092919081815260200182805461039790611d42565b80156103e45780601f106103b9576101008083540402835291602001916103e4565b820191906000526020600020905b8154815290600101906020018083116103c757829003601f168201915b5050505050905090565b6000806103f96109ba565b90506104068185856109c2565b600191505092915050565b6000600254905090565b6000806104266109ba565b9050610433858285610b8d565b61043e858585610c19565b60019150509392505050565b60006012905090565b600061045d610e9a565b905090565b60008061046d6109ba565b9050610501818585600160008673ffffffffffffffffffffffffffffffffffffffff1673ffffffffffffffffffffffffffffffffffffffff16815260200190815260200160002060008973ffffffffffffffffffffffffffffffffffffffff1673ffffffffffffffffffffffffffffffffffffffff168152602001908152602001600020546104fc9190611c5a565b6109c2565b600191505092915050565b61051b878787878787876107a6565b61055a576040517f08c379a000000000000000000000000000000000000000000000000000000000815260040161055190611a7d565b60405180910390fd5b61056587878761041b565b5050505050505050565b60008060008373ffffffffffffffffffffffffffffffffffffffff1673ffffffffffffffffffffffffffffffffffffffff168152602001908152602001600020549050919050565b6000610600600560008473ffffffffffffffffffffffffffffffffffffffff1673ffffffffffffffffffffffffffffffffffffffff168152602001908152602001600020610fb4565b9050919050565b60606004805461061690611d42565b80601f016020809104026020016040519081016040528092919081815260200182805461064290611d42565b801561068f5780601f106106645761010080835404028352916020019161068f565b820191906000526020600020905b81548152906001019060200180831161067257829003601f168201915b5050505050905090565b6000806106a46109ba565b90506000600160008373ffffffffffffffffffffffffffffffffffffffff1673ffffffffffffffffffffffffffffffffffffffff16815260200190815260200160002060008673ffffffffffffffffffffffffffffffffffffffff1673ffffffffffffffffffffffffffffffffffffffff1681526020019081526020016000205490508381101561076a576040517f08c379a000000000000000000000000000000000000000000000000000000000815260040161076190611bdd565b60405180910390fd5b61077782868684036109c2565b60019250505092915050565b60008061078e6109ba565b905061079b818585610c19565b600191505092915050565b6000844211156107eb576040517f08c379a00000000000000000000000000000000000000000000000000000000081526004016107e290611add565b60405180910390fd5b6000861161082e576040517f08c379a000000000000000000000000000000000000000000000000000000000815260040161082590611bbd565b60405180910390fd5b60007f000000000000000000000000000000000000000000000000000000000000000089898961085d8d610fc2565b8a60405160200161087396959493929190611902565b604051602081830303815290604052805190602001209050600061089682611020565b905060006108a68288888861103a565b90508a73ffffffffffffffffffffffffffffffffffffffff168173ffffffffffffffffffffffffffffffffffffffff1614610916576040517f08c379a000000000000000000000000000000000000000000000000000000000815260040161090d90611b5d565b60405180910390fd5b6109218b8b8b6109c2565b60019350505050979650505050505050565b6000600160008473ffffffffffffffffffffffffffffffffffffffff1673ffffffffffffffffffffffffffffffffffffffff16815260200190815260200160002060008373ffffffffffffffffffffffffffffffffffffffff1673ffffffffffffffffffffffffffffffffffffffff16815260200190815260200160002054905092915050565b600033905090565b600073ffffffffffffffffffffffffffffffffffffffff168373ffffffffffffffffffffffffffffffffffffffff161415610a32576040517f08c379a0000000000000000000000000000000000000000000000000000000008152600401610a2990611b9d565b60405180910390fd5b600073ffffffffffffffffffffffffffffffffffffffff168273ffffffffffffffffffffffffffffffffffffffff161415610aa2576040517f08c379a0000000000000000000000000000000000000000000000000000000008152600401610a9990611a9d565b60405180910390fd5b80600160008573ffffffffffffffffffffffffffffffffffffffff1673ffffffffffffffffffffffffffffffffffffffff16815260200190815260200160002060008473ffffffffffffffffffffffffffffffffffffffff1673ffffffffffffffffffffffffffffffffffffffff168152602001908152602001600020819055508173ffffffffffffffffffffffffffffffffffffffff168373ffffffffffffffffffffffffffffffffffffffff167f8c5be1e5ebec7d5bd14f71427d1e84f3dd0314c0f7b2291e5b200ac8c7c3b92583604051610b809190611bfd565b60405180910390a3505050565b6000610b998484610933565b90507fffffffffffffffffffffffffffffffffffffffffffffffffffffffffffffffff8114610c135781811015610c05576040517f08c379a0000000000000000000000000000000000000000000000000000000008152600401610bfc90611abd565b60405180910390fd5b610c1284848484036109c2565b5b50505050565b600073ffffffffffffffffffffffffffffffffffffffff168373ffffffffffffffffffffffffffffffffffffffff161415610c89576040517f08c379a0000000000000000000000000000000000000000000000000000000008152600401610c8090611b7d565b60405180910390fd5b600073ffffffffffffffffffffffffffffffffffffffff168273ffffffffffffffffffffffffffffffffffffffff161415610cf9576040517f08c379a0000000000000000000000000000000000000000000000000000000008152600401610cf090611a3d565b60405180910390fd5b610d04838383611065565b60008060008573ffffffffffffffffffffffffffffffffffffffff1673ffffffffffffffffffffffffffffffffffffffff16815260200190815260200160002054905081811015610d8a576040517f08c379a0000000000000000000000000000000000000000000000000000000008152600401610d8190611afd565b60405180910390fd5b8181036000808673ffffffffffffffffffffffffffffffffffffffff1673ffffffffffffffffffffffffffffffffffffffff16815260200190815260200160002081905550816000808573ffffffffffffffffffffffffffffffffffffffff1673ffffffffffffffffffffffffffffffffffffffff1681526020019081526020016000206000828254610e1d9190611c5a565b925050819055508273ffffffffffffffffffffffffffffffffffffffff168473ffffffffffffffffffffffffffffffffffffffff167fddf252ad1be2c89b69c2b068fc378daa952ba7f163c4a11628f55a4df523b3ef84604051610e819190611bfd565b60405180910390a3610e9484848461106a565b50505050565b60007f000000000000000000000000000000000000000000000000000000000000000073ffffffffffffffffffffffffffffffffffffffff163073ffffffffffffffffffffffffffffffffffffffff16148015610f1657507f000000000000000000000000000000000000000000000000000000000000000046145b15610f43577f00000000000000000000000000000000000000000000000000000000000000009050610fb1565b610fae7f00000000000000000000000000000000000000000000000000000000000000007f00000000000000000000000000000000000000000000000000000000000000007f000000000000000000000000000000000000000000000000000000000000000061106f565b90505b90565b600081600001549050919050565b600080600560008473ffffffffffffffffffffffffffffffffffffffff1673ffffffffffffffffffffffffffffffffffffffff168152602001908152602001600020905061100f81610fb4565b915061101a816110a9565b50919050565b600061103361102d610e9a565b836110bf565b9050919050565b600080600061104b878787876110f2565b91509150611058816111ff565b8192505050949350505050565b505050565b505050565b6000838383463060405160200161108a959493929190611963565b6040516020818303038152906040528051906020012090509392505050565b6001816000016000828254019250508190555050565b600082826040516020016110d4929190611895565b60405160208183030381529060405280519060200120905092915050565b6000807f7fffffffffffffffffffffffffffffff5d576e7357a4501ddfe92f46681b20a08360001c111561112d5760006003915091506111f6565b601b8560ff16141580156111455750601c8560ff1614155b156111575760006004915091506111f6565b60006001878787876040516000815260200160405260405161117c94939291906119b6565b6020604051602081039080840390855afa15801561119e573d6000803e3d6000fd5b505050602060405103519050600073ffffffffffffffffffffffffffffffffffffffff168173ffffffffffffffffffffffffffffffffffffffff1614156111ed576000600192509250506111f6565b80600092509250505b94509492505050565b6000600481111561121357611212611dad565b5b81600481111561122657611225611dad565b5b1415611231576113d1565b6001600481111561124557611244611dad565b5b81600481111561125857611257611dad565b5b1415611299576040517f08c379a000000000000000000000000000000000000000000000000000000000815260040161129090611a1d565b60405180910390fd5b600260048111156112ad576112ac611dad565b5b8160048111156112c0576112bf611dad565b5b1415611301576040517f08c379a00000000000000000000000000000000000000000000000000000000081526004016112f890611a5d565b60405180910390fd5b6003600481111561131557611314611dad565b5b81600481111561132857611327611dad565b5b1415611369576040517f08c379a000000000000000000000000000000000000000000000000000000000815260040161136090611b1d565b60405180910390fd5b60048081111561137c5761137b611dad565b5b81600481111561138f5761138e611dad565b5b14156113d0576040517f08c379a00000000000000000000000000000000000000000000000000000000081526004016113c790611b3d565b60405180910390fd5b5b50565b6000813590506113e381612207565b92915050565b6000813590506113f88161221e565b92915050565b60008135905061140d81612235565b92915050565b6000813590506114228161224c565b92915050565b60006020828403121561143e5761143d611e0b565b5b600061144c848285016113d4565b91505092915050565b6000806040838503121561146c5761146b611e0b565b5b600061147a858286016113d4565b925050602061148b858286016113d4565b9150509250929050565b6000806000606084860312156114ae576114ad611e0b565b5b60006114bc868287016113d4565b93505060206114cd868287016113d4565b92505060406114de868287016113fe565b9150509250925092565b600080600080600080600060e0888a03121561150757611506611e0b565b5b60006115158a828b016113d4565b97505060206115268a828b016113d4565b96505060406115378a828b016113fe565b95505060606115488a828b016113fe565b94505060806115598a828b01611413565b93505060a061156a8a828b016113e9565b92505060c061157b8a828b016113e9565b91505092959891949750929550565b600080604083850312156115a1576115a0611e0b565b5b60006115af858286016113d4565b92505060206115c0858286016113fe565b9150509250929050565b6115d381611cb0565b82525050565b6115e281611cc2565b82525050565b6115f181611cce565b82525050565b61160861160382611cce565b611d74565b82525050565b600061161982611c33565b6116238185611c3e565b9350611633818560208601611d0f565b61163c81611e10565b840191505092915050565b6000611654601883611c3e565b915061165f82611e21565b602082019050919050565b6000611677602383611c3e565b915061168282611e4a565b604082019050919050565b600061169a601f83611c3e565b91506116a582611e99565b602082019050919050565b60006116bd601b83611c3e565b91506116c882611ec2565b602082019050919050565b60006116e0602283611c3e565b91506116eb82611eeb565b604082019050919050565b6000611703600283611c4f565b915061170e82611f3a565b600282019050919050565b6000611726601d83611c3e565b915061173182611f63565b602082019050919050565b6000611749601d83611c3e565b915061175482611f8c565b602082019050919050565b600061176c602683611c3e565b915061177782611fb5565b604082019050919050565b600061178f602283611c3e565b915061179a82612004565b604082019050919050565b60006117b2602283611c3e565b91506117bd82612053565b604082019050919050565b60006117d5601e83611c3e565b91506117e0826120a2565b602082019050919050565b60006117f8602583611c3e565b9150611803826120cb565b604082019050919050565b600061181b602483611c3e565b91506118268261211a565b604082019050919050565b600061183e602c83611c3e565b915061184982612169565b604082019050919050565b6000611861602583611c3e565b915061186c826121b8565b604082019050919050565b61188081611cf8565b82525050565b61188f81611d02565b82525050565b60006118a0826116f6565b91506118ac82856115f7565b6020820191506118bc82846115f7565b6020820191508190509392505050565b60006020820190506118e160008301846115d9565b92915050565b60006020820190506118fc60008301846115e8565b92915050565b600060c08201905061191760008301896115e8565b61192460208301886115ca565b61193160408301876115ca565b61193e6060830186611877565b61194b6080830185611877565b61195860a0830184611877565b979650505050505050565b600060a08201905061197860008301886115e8565b61198560208301876115e8565b61199260408301866115e8565b61199f6060830185611877565b6119ac60808301846115ca565b9695505050505050565b60006080820190506119cb60008301876115e8565b6119d86020830186611886565b6119e560408301856115e8565b6119f260608301846115e8565b95945050505050565b60006020820190508181036000830152611a15818461160e565b905092915050565b60006020820190508181036000830152611a3681611647565b9050919050565b60006020820190508181036000830152611a568161166a565b9050919050565b60006020820190508181036000830152611a768161168d565b9050919050565b60006020820190508181036000830152611a96816116b0565b9050919050565b60006020820190508181036000830152611ab6816116d3565b9050919050565b60006020820190508181036000830152611ad681611719565b9050919050565b60006020820190508181036000830152611af68161173c565b9050919050565b60006020820190508181036000830152611b168161175f565b9050919050565b60006020820190508181036000830152611b3681611782565b9050919050565b60006020820190508181036000830152611b56816117a5565b9050919050565b60006020820190508181036000830152611b76816117c8565b9050919050565b60006020820190508181036000830152611b96816117eb565b9050919050565b60006020820190508181036000830152611bb68161180e565b9050919050565b60006020820190508181036000830152611bd681611831565b9050919050565b60006020820190508181036000830152611bf681611854565b9050919050565b6000602082019050611c126000830184611877565b92915050565b6000602082019050611c2d6000830184611886565b92915050565b600081519050919050565b600082825260208201905092915050565b600081905092915050565b6000611c6582611cf8565b9150611c7083611cf8565b9250827fffffffffffffffffffffffffffffffffffffffffffffffffffffffffffffffff03821115611ca557611ca4611d7e565b5b828201905092915050565b6000611cbb82611cd8565b9050919050565b60008115159050919050565b6000819050919050565b600073ffffffffffffffffffffffffffffffffffffffff82169050919050565b6000819050919050565b600060ff82169050919050565b60005b83811015611d2d578082015181840152602081019050611d12565b83811115611d3c576000848401525b50505050565b60006002820490506001821680611d5a57607f821691505b60208210811415611d6e57611d6d611ddc565b5b50919050565b6000819050919050565b7f4e487b7100000000000000000000000000000000000000000000000000000000600052601160045260246000fd5b7f4e487b7100000000000000000000000000000000000000000000000000000000600052602160045260246000fd5b7f4e487b7100000000000000000000000000000000000000000000000000000000600052602260045260246000fd5b600080fd5b6000601f19601f8301169050919050565b7f45434453413a20696e76616c6964207369676e61747572650000000000000000600082015250565b7f45524332303a207472616e7366657220746f20746865207a65726f206164647260008201527f6573730000000000000000000000000000000000000000000000000000000000602082015250565b7f45434453413a20696e76616c6964207369676e6174757265206c656e67746800600082015250565b7f7065726d69742066756e6374696f6e206e6f7420616c6c6f7765640000000000600082015250565b7f45524332303a20617070726f766520746f20746865207a65726f20616464726560008201527f7373000000000000000000000000000000000000000000000000000000000000602082015250565b7f1901000000000000000000000000000000000000000000000000000000000000600082015250565b7f45524332303a20696e73756666696369656e7420616c6c6f77616e6365000000600082015250565b7f45524332305065726d69743a206578706972656420646561646c696e65000000600082015250565b7f45524332303a207472616e7366657220616d6f756e742065786365656473206260008201527f616c616e63650000000000000000000000000000000000000000000000000000602082015250565b7f45434453413a20696e76616c6964207369676e6174757265202773272076616c60008201527f7565000000000000000000000000000000000000000000000000000000000000602082015250565b7f45434453413a20696e76616c6964207369676e6174757265202776272076616c60008201527f7565000000000000000000000000000000000000000000000000000000000000602082015250565b7f45524332305065726d69743a20696e76616c6964207369676e61747572650000600082015250565b7f45524332303a207472616e736665722066726f6d20746865207a65726f20616460008201527f6472657373000000000000000000000000000000000000000000000000000000602082015250565b7f45524332303a20617070726f76652066726f6d20746865207a65726f2061646460008201527f7265737300000000000000000000000000000000000000000000000000000000602082015250565b7f45524332305065726d69743a2076616c7565206d75737420626520677265617460008201527f6572207468616e207a65726f0000000000000000000000000000000000000000602082015250565b7f45524332303a2064656372656173656420616c6c6f77616e63652062656c6f7760008201527f207a65726f000000000000000000000000000000000000000000000000000000602082015250565b61221081611cb0565b811461221b57600080fd5b50565b61222781611cce565b811461223257600080fd5b50565b61223e81611cf8565b811461224957600080fd5b50565b61225581611d02565b811461226057600080fd5b5056fea26469706673582212209a60de98a616c2de4d429421e2f73b1f13cecc3bbdd8d3f6c238c9626d72a66e64736f6c63430008070033",
  "immutableReferences": {
    "1402": [
      {
        "length": 32,
        "start": 3869
      }
    ],
    "1404": [
      {
        "length": 32,
        "start": 3828
      }
    ],
    "1406": [
      {
        "length": 32,
        "start": 3742
      }
    ],
    "1408": [
      {
        "length": 32,
        "start": 3945
      }
    ],
    "1410": [
      {
        "length": 32,
        "start": 3978
      }
    ],
    "1412": [
      {
        "length": 32,
        "start": 3912
      }
    ],
    "1577": [
      {
        "length": 32,
        "start": 2098
      }
    ]
  },
  "source": "// SPDX-License-Identifier: MIT\npragma solidity ^0.8.0;\n\nimport \"./ERC20Permit.sol\";\n\ncontract PermitTest is ERC20Permit {\n\n   constructor(string memory name, string memory symbol) ERC20Permit(name, symbol) {}\n\n    function approveTransferFrom(\n        address owner,\n        address spender,\n        uint256 value,\n        uint256 deadline,\n        uint8 v,\n        bytes32 r,\n        bytes32 s\n    ) public {\n        require(permit(owner, spender, value, deadline, v, r, s), \"permit function not allowed\");\n        transferFrom(owner, spender, value);\n    }\n}",
  "sourcePath": "/Users/paulochade/Desktop/PtE/permit/contracts/PermitTest.sol",
  "compiler": {
    "name": "solc",
    "version": "0.8.7+commit.e28d00a7.Emscripten.clang"
  },
  "schemaVersion": "3.4.3",
  "updatedAt": "2022-03-08T19:00:45.335Z",
  "devdoc": {
    "kind": "dev",
    "methods": {
      "DOMAIN_SEPARATOR()": {
        "details": "Returns the domain separator used in the encoding of the signature for {permit}, as defined by {EIP712}."
      },
      "allowance(address,address)": {
        "details": "See {IERC20-allowance}."
      },
      "approve(address,uint256)": {
        "details": "See {IERC20-approve}. NOTE: If `amount` is the maximum `uint256`, the allowance is not updated on `transferFrom`. This is semantically equivalent to an infinite approval. Requirements: - `spender` cannot be the zero address."
      },
      "balanceOf(address)": {
        "details": "See {IERC20-balanceOf}."
      },
      "decimals()": {
        "details": "Returns the number of decimals used to get its user representation. For example, if `decimals` equals `2`, a balance of `505` tokens should be displayed to a user as `5.05` (`505 / 10 ** 2`). Tokens usually opt for a value of 18, imitating the relationship between Ether and Wei. This is the value {ERC20} uses, unless this function is overridden; NOTE: This information is only used for _display_ purposes: it in no way affects any of the arithmetic of the contract, including {IERC20-balanceOf} and {IERC20-transfer}."
      },
      "decreaseAllowance(address,uint256)": {
        "details": "Atomically decreases the allowance granted to `spender` by the caller. This is an alternative to {approve} that can be used as a mitigation for problems described in {IERC20-approve}. Emits an {Approval} event indicating the updated allowance. Requirements: - `spender` cannot be the zero address. - `spender` must have allowance for the caller of at least `subtractedValue`."
      },
      "increaseAllowance(address,uint256)": {
        "details": "Atomically increases the allowance granted to `spender` by the caller. This is an alternative to {approve} that can be used as a mitigation for problems described in {IERC20-approve}. Emits an {Approval} event indicating the updated allowance. Requirements: - `spender` cannot be the zero address."
      },
      "name()": {
        "details": "Returns the name of the token."
      },
      "nonces(address)": {
        "details": "Returns the current nonce for `owner`. This value must be included whenever a signature is generated for {permit}. Every successful call to {permit} increases ``owner``'s nonce by one. This prevents a signature from being used multiple times."
      },
      "permit(address,address,uint256,uint256,uint8,bytes32,bytes32)": {
        "details": "Sets `value` as the allowance of `spender` over ``owner``'s tokens, given ``owner``'s signed approval. IMPORTANT: The same issues {IERC20-approve} has related to transaction ordering also apply here. Emits an {Approval} event. Requirements: - `spender` cannot be the zero address. - `deadline` must be a timestamp in the future. - `v`, `r` and `s` must be a valid `secp256k1` signature from `owner` over the EIP712-formatted function arguments. - the signature must use ``owner``'s current nonce (see {nonces}). For more information on the signature format, see the https://eips.ethereum.org/EIPS/eip-2612#specification[relevant EIP section]."
      },
      "symbol()": {
        "details": "Returns the symbol of the token, usually a shorter version of the name."
      },
      "totalSupply()": {
        "details": "See {IERC20-totalSupply}."
      },
      "transfer(address,uint256)": {
        "details": "See {IERC20-transfer}. Requirements: - `to` cannot be the zero address. - the caller must have a balance of at least `amount`."
      },
      "transferFrom(address,address,uint256)": {
        "details": "See {IERC20-transferFrom}. Emits an {Approval} event indicating the updated allowance. This is not required by the EIP. See the note at the beginning of {ERC20}. NOTE: Does not update the allowance if the current allowance is the maximum `uint256`. Requirements: - `from` and `to` cannot be the zero address. - `from` must have a balance of at least `amount`. - the caller must have allowance for ``from``'s tokens of at least `amount`."
      }
    },
    "version": 1
  },
  "userdoc": {
    "kind": "user",
    "methods": {},
    "version": 1
  }
}